:020000021000EC
:10900000000001206D930100B993010027040200C4
:10901000BD930100BF930100C19301000000000057
:109020000000000000000000000000002F0402000B
:10903000C59301000000000031040200C993010043
:109040002DB40100CB93010071B501005DBE01009C
:109050008DC10100CB930100A5B501003DB8010011
:10906000DDBF0100F5BF01000DC00100CB93010081
:10907000CB930100CB930100CB930100CB93010074
:10908000CB93010031A30100CB930100CB930100EE
:1090900059A30100CB930100F9E80100CB93010033
:1090A000CB930100CB930100CB930100CB93010044
:1090B000CB930100CB9301000000000000000000F2
:1090C000CB930100CB930100CB930100CB93010024
:1090D000CB930100CB930100CB9301000000000073
:1090E0000000000000000000000000000000000080
:1090F0000000000000000000000000000000000070
:10910000000000000000000000000000000000005F
:10911000000000000000000000000000000000004F
:10912000000000000000000000000000000000003F
:10913000000000000000000000000000000000002F
:10914000000000000000000000000000000000001F
:10915000000000000000000000000000000000000F
:1091600000000000000000000000000000000000FF
:1091700000000000000000000000000000000000EF
:1091800000000000000000000000000000000000DF
:1091900000000000000000000000000000000000CF
:1091A00000000000000000000000000000000000BF
:1091B00000000000000000000000000000000000AF
:1091C000000000000000000000000000000000009F
:1091D000000000000000000000000000000000008F
:1091E000000000000000000000000000000000007F
:1091F000000000000000000000000000000000006F
:1092000039493A480A1A02D0072291438D46384913
:1092100038480A1A06D00722914381F309880222AE
:1092200082F3148834483549354A00F03EF8354811
:109230003549364A00F039F835483649364A00F0A3
:1092400034F836483649374A00F02FF8364837495F
:10925000374A00F02AF837483749384A00F025F8ED
:1092600037483849384A00F020F838483849002251
:1092700000F033F837483849002200F02EF837481C
:109280003749091A0AF07AFE364A90472448254998
:10929000884205D00268043003B4904703BCF7E766
:1092A00000200021304A9047FEE7884214D0521A2D
:1092B00012D003460B4313430324234206D1036811
:1092C00004300B600431043AF9D17047037801305F
:1092D0000B700131013AF9D17047884202D0027017
:1092E0000130FAE7704700000000012000F800207C
:1092F000000001200000012040F4020000250020B1
:1093000068250020D0930100D09301007242020032
:1093100040F40200002500200025002080430200C8
:109320008043020080430200804302008043020029
:109330008043020080430200804302003DF40200AB
:10934000A8F4020068250020682500206825002078
:10935000A43B0020A43B0020A43B0020A43B002011
:10936000A443002083930100FDC801000C488047FE
:109370000C484FF00701884385460B488047FFF7AC
:109380003FBF0A480A490B4A884207D0521A05D003
:10939000037801300B700131013AF9D170470000B8
:1093A000CD93010000000120C9AF010080430200FD
:1093B0000025002000250020FEE7FEE7FEE7FEE78F
:1093C000FEE7FEE7FEE7FEE7FEE7FEE7704700BFC9
:1093D0007047704700B583B0034B00938023034A66
:1093E00000F032F803B000BDF193010068250020C1
:1093F0000AB3F8B50F4614460326002503E00E4BCA
:1094000001221A70B4B122467919002003F088FCB9
:109410000544241A0028F2D1074B1B7853B1074B9F
:109420004FF47A4043F001039847013EE7D1024BE5
:1094300000221A70F8BD7047E82500208043020022
:1094400008B503F0A9FC08BD2DE9F04194B00E4623
:1094500015461C46084601F08CFB0E950F9400241F
:1094600010948DF8444012941A9B139323460822BB
:1094700008A9304601F09BFB0A9B0B93BDF82430F2
:10948000ADF83030BDF82630ADF832308DF83540CB
:109490009DF8203003F00303012B07D0022B22D0CC
:1094A000304601F06CFB14B0BDE8F081089DC5F3B7
:1094B00095259DF82030C3F3C2038DF83430BDF8F4
:1094C0002040C4F3831402AF0823A200394630467B
:1094D00001F06DFB0EAB00930BAB224639462846DC
:1094E00000F086FBDCE7BDF82250C5F389159DF836
:1094F0002030C3F3C2038DF8343008272C46082DE2
:1095000028BF08240DF108083B4622464146304654
:1095100001F04DFB27442D1B0EAB0BAA2146404604
:1095200000F0CEFB002DE9D1BAE7000008B5FFF747
:1095300087FF0421034800F0DDFA034B01225A7132
:1095400008BD00BF7043020000250020037813F01F
:10955000040F19D003F00303012B03D0022B0AD010
:10956000012070470388C3F383130A68134402334E
:109570000B60012070474388C3F389130A681344C2
:1095800002330B600120704700207047002002E08A
:1095900001238BB9013009280CDC084BD3F81034B7
:1095A000002BF5D0DB681A79824201D01B68F7E7FF
:1095B0000023EEE74FF0FF30704700BFEC2500209E
:1095C000F0B583B006460D461746841C00238DF87F
:1095D00007300DF1070000F085FF184B1A682A606C
:1095E00099685B689B1A0B4401339C4218D800238E
:1095F000E7B1012060F3010343F0040366F389132C
:10960000114002310D4800EB81014B6022440260A1
:1096100001249DF8070000F069FF204603B0F0BD6B
:109620000121074800F0A8FF0024F2E7022060F3C0
:10963000010343F0040366F39F53E1E7EC250020A8
:10964000082A00202DE9F8430646894690461D4623
:10965000070C164C0021204600F06EFF80F310002E
:109660006B1C089A134047EA0047A4F21C440233DB
:1096700004EB83035F601540023504EB85031A7920
:1096800066F3C5021A719A8868F389129A805A683B
:1096900069F39F225A601A79012161F301021A715C
:1096A000D2B222F004021A71BDE8F883082A002021
:1096B00010B50B4BFF229A6000221A605A60C3F863
:1096C0001824C3F8142483F82024064801F006FA6D
:1096D000044608B1204610BD034801F0B0FAF9E78E
:1096E000EC250020D4420200084B02000248034B44
:1096F000C01AC008704700BF70430200E842020071
:1097000099B110B50446FFF7F1FF002383420AD256
:10971000074A32F823102268914201D00133F5E75D
:109720002360002000E0052010BD0846704700BF00
:109730000025002000B583B0019001A8FFF7E0FFED
:1097400028B9019A034B53F8320003B000BD002042
:10975000FBE700BFE84202000B4B03EBC003032909
:109760000CD005D801290BD002290BD10420704759
:10977000042901D158797047002070471879704743
:109780000220704700207047E8420200034B5868EF
:109790001B68984214BF002001207047EC25002070
:1097A0002DE9F04385B0FFF7F1FF002840F010816C
:1097B000054689480023C0F81834BFF34F8F43682B
:1097C000039384682340023300EB8300043005E0F8
:1097D00023400233804800EB8300043003A9FFF7E5
:1097E000B5FE28B37C4BD3F818341BBB7A4B1A68F0
:1097F000039B9A42ECD8784B5A60E5E0039B591CD6
:10980000039123400233744901EB830359684DF8F7
:1098100022100132012AF1D99DF8003003F0030330
:10982000022B09D0012B66D06B4BD3F81044B9E062
:109830000246EFE70022EDE7BDF80230C3F38912DC
:109840009046502A28BF5022154662F38F13ADF878
:10985000023002F10801614801F05BF90646074653
:109860000028E1D001F085F900230822694630463E
:1098700001F093F9039B24EA030201329000B5EB57
:10988000820F2CD9E0B9ECB206465549814608232F
:109890002246384601F081F904F1080331461EB131
:1098A0004A46384601F079F943460333039A02EBFE
:1098B00093020392002FB7D0474BD3F8104459E0DE
:1098C00003EA04010231444B03EB81010431C4B2C9
:1098D000EAB2121BD2B291460C331E46D7E72340A0
:1098E00002333D4901EB830108232A460431304607
:1098F00001F053F9D8E7BDF80020C2F38313062B1B
:1099000028BF062363F38912ADF8002002339900C3
:10991000324801F0FEF805460746002884D001F0E1
:1099200028F9002308226946284601F036F9002369
:109930001E460823184614E0039B5A1C039223403A
:109940000233254901EB83010546034604221144F5
:10995000384601F022F92B460433184633460133CA
:109960001E46BDF80030C3F38313B342E4D8A1E729
:10997000E3681C684CB1E3685B79002BF8D023687E
:109980001B68394620469847F2E7384601F0F7F859
:10999000114B039A5A6011E023689B682046984750
:1099A000E3681C68002CF7D10E480F4BC01AC008A2
:1099B00000040E4940F0020000F052F8FFF7E6FE06
:1099C00080F00100C3B21D46284605B0BDE8F08313
:1099D00000231D46F8E700BFEC250020D44202001A
:1099E000F825002030430200E8420200A4430200B0
:1099F0002DE9F04184B00746884615461C46174BB2
:109A00009E68012203A92046FFF7DAFDD0B1039931
:109A10008B1C4FF0000C0CE003EA060002300F4AEA
:109A200002EB800E55F82C20CEF804200CF1010C2E
:109A30000133A445F0D300960B46224641463846F2
:109A4000FFF700FE054B93F820341BB1FFF7A8FE8B
:109A50000028FBD104B0BDE8F08100BFEC25002058
:109A600008B500231A46FFF7C3FF08BD00B583B051
:109A70000192012301AAFFF7BBFF03B000BD00B5AF
:109A800083B00092019302236A46FFF7B1FF03B04F
:109A900000BD00B585B000920193069B0293079B21
:109AA000039304236A46FFF7A3FF05B000BD00B58A
:109AB00087B001920293089B0393099B04930A9B2E
:109AC0000593052301AAFFF793FF07B000BD00B57A
:109AD00087B000920193089B0293099B03930A9B12
:109AE00004930B9B059306236A46FFF781FF07B09B
:109AF00000BD000010B50446FFF748FDB0F1FF3F80
:109B00000ED0E36818710A4BD3F810344BB1DA6801
:109B1000E36812681A60064BD3F81034DB681C60E7
:109B200010BD034BC3F81044E36800221A60F7E746
:109B3000EC25002070B582B004460E46C388A3B958
:109B4000217A05290FD0637ABBB9227A104B53F8DA
:109B500022500021A088FFF7EDFD03462A460D495B
:109B6000304600F096FD02B070BD0B4A00920B4AE1
:109B70000B49304600F08DFDE2E7A088FFF7ECFDD1
:109B8000084B53F820200849304600F082FDDCE7FE
:109B9000384B0200E8430200DC430200BC430200F1
:109BA000C4430200144B0200E443020010B50C460B
:109BB000037A052B0FD0437A3BB90A49204600F0BF
:109BC00068FD204600F059FD10BD074A07492046B0
:109BD00000F05FFDF1E7002AF3D00249204600F0D3
:109BE00058FDEEE7F4430200DC430200E4430200C8
:109BF0002DE9F04385B081460E4615461846984635
:109C00000C9C277B002323732146FFF793FF032D32
:109C100030D011D8012D20D0022D24D01DB94946B5
:109C2000204600F036FD002221464046FFF7BEFFE9
:109C3000277305B0BDE8F083052D24D0062D2FD065
:109C4000042DF0D1F3680193B36800937368326810
:109C50004946204600F01DFDE5E7326849462046AA
:109C600000F017FDDFE7736832684946204600F0D0
:109C700010FDD8E7B3680093736832684946204600
:109C800000F007FDCFE733690293F3680193B368EF
:109C90000093736832684946204600F0FAFCC2E738
:109CA0007369039333690293F3680193B368009374
:109CB000736832684946204600F0EBFCB3E70000C9
:109CC000082900D970472DE9F04707460E4691460E
:109CD0001D461B7B9A4600242C7329461046FFF72D
:109CE00029FF04E01C49284600F0D3FC0134072C6E
:109CF00007D8B442F6D23A5D1849284600F0C9FCAC
:109D0000F4E71749284600F0C4FC002407E04FF0B0
:109D10002E0842461349284600F0BBFC0134072CAC
:109D200011D8B4420AD2385D7E28F0D880460AF0B5
:109D300058FA0028EDD14FF02E08EAE70A492846E4
:109D400000F0A7FCEAE7012229464846FFF72EFF6C
:109D500085F80CA0BDE8F08700440200F84302003B
:109D600004440200084402000C44020000B585B01F
:109D7000002101910291039001AA44F2010006F032
:109D80008EFB05B000BD0000034BC3F80805034B74
:109D9000C02283F8112370470010014000E100E069
:109DA00010B50B4B4FF48032C3F84423C3F804239F
:109DB000084A4FF40031C2F88011116001241C6080
:109DC000054B4FF43C6023439847044B1C7010BD77
:109DD0000010014000E100E0504B0200792B002010
:109DE00070B50E4B4FF40032C3F880200C4D4FF489
:109DF0008033C5F84833C5F8083301266E60094C36
:109E000034434FF43C60A047AE600025064B1D6014
:109E10004FF43C60A047054B1D7070BD00E100E0B1
:109E200000100140504B0200842B0020792B0020B1
:109E30008446134B186860B1DCF8002003689A422E
:109E40001CD89B1A0360CCF81C000D4BC3F800C053
:109E50007047C3F800C07047521A1846DB6913B147
:109E600019689142F8D313B11968891A1960CCF8AE
:109E70000020CCF81C30C0F81CC070470346EEE749
:109E8000882B002070B5184B1E683446354601E01B
:109E90002546E4690CB18442FAD114B3A5420CD032
:109EA0002168E369EB6113B11A680A441A600E4B2A
:109EB0001868801B18BF012070BDF3690A4A13603F
:109EC000002BEDD10123094A9360094A002111605A
:109ED000084A1370084B4FF43C6043F00103984765
:109EE000DEE72046E8E700BF882B00200010014095
:109EF000842B0020782B0020504B0200024B4FF4A3
:109F00000032C3F80021704700E100E0024B4FF43B
:109F10008012C3F80021704700E100E008B54369F2
:109F20008069984708BD00001B4B1868002832D094
:109F300070B51A4BD3F80445194B1B68E41A24F08A
:109F40007F44002504E000230374FFF7E7FF304659
:109F500048B10368A34206D8E41A1D44C669037CCD
:109F6000002BF4D0EFE70F4B1A780F4B1B789A4277
:109F700007D00D4B1A780D4B43F82250FFF7C6FF60
:109F800070BD0133DBB2084A1370022BF1D11346C6
:109F900000221A70EDE77047882B00200010014066
:109FA000842B00207B2B00207A2B00207C2B002090
:109FB000114B1B78114A1278934218D00133DBB24F
:109FC0000D4A1370022B0ED00B4B1A780C4B53F822
:109FD000223003600B4A11680B44136023F07F4367
:109FE000136001207047134600221A70ECE700232B
:109FF00003601846704700BF7B2B00207A2B00209F
:10A000007C2B0020842B002010B50C4696464FF088
:10A01000000C0F4B1B68D3B11968814215D8401A48
:10A020008C44002119600A49DA690A60D96800295C
:10A03000EFD00CEB040222F07F425A609960DEF808
:10A040000020DA61CEF80030E3E7081A186010BD8E
:10A05000882B0020F8B50546404B1B681F4600239F
:10A060001E4628E03E4A0021117043E02046FFF7DB
:10A0700009FF034600B93346002222741E461AE047
:10A0800000221A74DA69354B1A60344B1B68002BB6
:10A09000F6D110E0521A22F07F42A36893421AD9F7
:10A0A0009B1A236000236360A36001222274E36192
:10A0B0002046FFF7BDFE8DB12C46ED696168294B46
:10A0C0001A688B1A23F07F4327488342E2D8A2689C
:10A0D00013442360E6E700232360E3E7204A137874
:10A0E000527893422ED05A1CD2B21D490A708978F8
:10A0F0008A42B7D003EB4301194A02EBC1029468CC
:10A100001279022AB2D0032ABFD0012AD3D1227CED
:10A11000002AD0D1124903EB430201EBC202D068FE
:10A1200060601069A0605269E26003EB430301EBD9
:10A13000C3018B69A3610D4B1B78002BBED000239C
:10A140006360BBE72EB9054B1B68BB4203D00120FF
:10A1500000E00120F8BD0020FCE700BF882B0020B4
:10A160008C2B0020842B0020FEFF7F00782B00200A
:10A17000F8B51B4B1B687BB31B681E46194BD3F805
:10A180000455194B1C682B1B23F07F4303331F46D8
:10A19000164B1B780BB3BE422CBFA419E41924F054
:10A1A0007F44104BC3F84045D3F804355B1B23F0C4
:10A1B0007F430333641B24F07F44A3420CD9094B33
:10A1C000D3F80425C3F84025094B4FF43C6043F015
:10A1D00001039847FFF792FEF8BDFFF7E1FDDAE7CC
:10A1E000882B002000100140842B0020792B0020B8
:10A1F000504B020070B582B0002301930E4B1B68D8
:10A200001E460E4B1B681D466846FFF7D1FE0446EE
:10A2100060B90198FFF71EFF00B914B12846FFF797
:10A22000A7FF074B00221A7002B070BD01AA314689
:10A230000098FFF7E9FEECE7842B0020882B002034
:10A24000782B0020014B5870704700BF8C2B0020EA
:10A250000B4A53780133DBB292789A420CD0084A09
:10A2600012789A420AD003700548437803EB4303FF
:10A2700000EBC300043070470023F0E70020704774
:10A280008C2B00202DE9F04182B005460E46174682
:10A29000984600248DF806400DF1060000F022F9E2
:10A2A0000DF10700FFF7D4FFB8B10123037045603B
:10A2B0000C4BD3F804358360C6600761C0F8148086
:10A2C0009DF80700FFF7BEFF9DF8060000F00EF9AD
:10A2D0002CB1204602B0BDE8F0810424F4E7FFF77A
:10A2E00015FEF6E70010014030B583B004460D4678
:10A2F00000238DF806300DF1060000F0F3F80DF1A3
:10A300000700FFF7A5FF70B1057044609DF80700D6
:10A31000FFF798FF00249DF8060000F0E7F824B14D
:10A32000204603B030BD0424F5E7FFF7EFFDF7E763
:10A3300008B5084B0022C3F84021C3F84421C3F8F4
:10A340004821C3F84C21C3F80021C3F80421FFF7CA
:10A35000EBFD08BD0010014008B5FFF74BFF08BD3D
:10A3600010B5FFF73DFD0F4B00241C705C701522EB
:10A370009A700D4B1C600D4B1C700D4B1C700D4BDF
:10A380004FF48012C3F88021C02183F814131A609F
:10A390002046FFF7F9FC084BD3F80425074B1A6059
:10A3A000204610BD8C2B0020882B00207B2B00200A
:10A3B0007A2B002000E100E000100140842B0020F7
:10A3C000094B9B7843B14AB150B10368187C48B936
:10A3D000187459745A6170470820704707207047F5
:10A3E00007207047082070478C2B002008B51346C3
:10A3F0000C4A92786AB170B104290ED9426972B1DF
:10A40000427C012A03D00022FFF73CFF08BD0A4628
:10A41000FAE70820FAE70820F8E70720F6E708201F
:10A42000F4E700BF8C2B002008B5094B9B7843B1A3
:10A4300048B143694BB1002303740221FFF754FF75
:10A4400008BD0820FCE70820FAE70820F8E700BF6D
:10A450008C2B0020EFF3108272B6134B9B68E3B98C
:10A4600000B5114901238B60104BD3F880C0DFF891
:10A4700040E00CEA0E0CC1F800C0C3F880E0D3F84D
:10A4800084C0C1F804C04FF0FF31C3F8841000232A
:10A49000037002B962B6002000BD0123037002B947
:10A4A00062B60020704700BF882D002000E100E068
:10A4B000FC06FFBD094B9B686BB160B9EFF31081DF
:10A4C00072B6064B1868064A106058685060002241
:10A4D0009A6001B962B60020704700BF882D002045
:10A4E00000E100E008B5FFF7B5FF08BD08B5FFF7CC
:10A4F000E1FF08BD08B54B0901F01F01012202FA76
:10A5000001F100EB830000F021F808BD08B54A090D
:10A5100001F01F01012303FA01F1C94300EB82009E
:10A5200000F01FF808BD4B0950F8230001F01F018F
:10A53000C84000F001007047034653E8000F0A4688
:10A5400043E8002C9CF0000FF7D17047034653E816
:10A55000002F42EA010043E8000C9CF0000FF6D106
:10A560007047034653E8002F02EA010043E8000C5D
:10A570009CF0000FF6D17047034653E8002F02EB22
:10A58000010043E8000C9CF0000FF6D17047034631
:10A5900053E8002FA2EB010043E8000C9CF0000FF1
:10A5A000F6D17047C368008A00FB01307047C3686A
:10A5B000C91A038AB1FBF3F0C0B270478446B0B148
:10A5C00082684368D21AD2B201680B6006E0DCF8F8
:10A5D00000100A68501C086013701A46531EDBB244
:10A5E000002AF4D1DCF8003010461A7170470E20B2
:10A5F000704730B583B0044600238DF807300DF165
:10A600000700FFF76FFF2268136861688B4217D954
:10A61000591E116013F8011C2046FFF7C3FF0546C1
:10A62000A368226811685B1ADBB21179994200D2E3
:10A6300013719DF80700FFF759FF284603B030BD9E
:10A6400000231D46F5E770B582B004460E46002390
:10A650008DF807300DF10700FFF744FF23681D68F0
:10A660006A1C1A6031462046FFF7A1FF28709DF84A
:10A670000700FFF73BFF02B070BD826842B110B522
:10A68000044643690168006998470023A36010BD30
:10A6900070470EB400B582B0039931B10023019325
:10A6A00004AB019301AA00F008F902B05DF804EBD5
:10A6B00003B0704708B583685A1C82600268D154A1
:10A6C000826843689A4200D208BDFFF7D6FFFBE7D5
:10A6D0002DE9F84F82460F4615461E46DDF82890B4
:10A6E0000B9A0B464FF0010803E0B3FBF5F308F1BA
:10A6F0000108AB42F9D2B04500D2B04612F00103D6
:10A700009B4613D1B9F1000F10D012F0020F0FD0F9
:10A7100086B1202405E009F1FF3921465046FFF7B4
:10A72000C9FFB9F1000F01D0C145F4D8012409E0F7
:10A730002024F6E73024F4E7B7FBF4F39D4205D874
:10A7400005FB04F4012EF7D9013EF9E7B7FBF4F35A
:10A7500004FB13770E4AD15C5046FFF7ABFF23464C
:10A76000B4FBF5F4AB42F1D25B4613B1B9F1000F83
:10A7700007D1BDE8F88F09F1FF3920215046FFF7D6
:10A7800099FFB9F1000FF4D0C145F4D8F1E700BF4B
:10A79000584B02002DE9F04F83B080460F46144617
:10A7A0009A460C9EDDF8349081EAE17CACEBE17CCA
:10A7B000012502E09CFBF4FC01356445FADD5545BA
:10A7C00000D255462EB1002F02DB19F0040F00D045
:10A7D000013E19F002039B4602D0BAF1000F03D0EC
:10A7E00019F0010F00D1F6B9002F21DB19F0040F89
:10A7F00024D15B4633B119F0010F03D1BAF1000F38
:10A8000000D12EBBCDF8049000965346224639461F
:10A810004046FFF75DFF03B0BDE8F08F013E202109
:10A820004046FFF747FF002EDED0AE42F6D8DBE70A
:10A830007F422D214046FFF73DFFDAE72B214046BE
:10A84000FFF738FFD5E7013E30214046FFF732FFE2
:10A85000002ED7D0AE42F6D8D4E7F8B506460C465F
:10A86000154613F001070ED1E1B1084609F091FB3E
:10A87000074617E0013401373046FFF71BFF217808
:10A880000029F7D106E00027F9E7013D20213046F5
:10A89000FFF710FFBD42F8D8F8BD013D202130463A
:10A8A000FFF708FFBD42F8D803E001343046FFF758
:10A8B00001FF21780029F8D1EEE7F0B583B0054615
:10A8C00016460C46002940F09580C2E00020012386
:10A8D00003E040F00100013483B121782D29F8D044
:10A8E000302903D02B2905D00023F5E740F00200E2
:10A8F0000134F1E740F004000134EDE71A462A295B
:10A900000ED02178A1F1300C5FFA8CFCBCF1090F5C
:10A910000CD8013402EB820201EB4202303AEEE73E
:10A920003368191D31601B681A44013423782E2BBB
:10A9300002D00023217813E0013400232178A1F113
:10A94000300C5FFA8CFCBCF1090FF3D8013403EB37
:10A95000830301EB4301A1F13003EFE714F8011F7A
:10A960006C29FBD06829F9D070295AD029D86329DD
:10A9700036D015D8252904D125212846FFF79AFE7F
:10A9800035E0582933D1316801F1040CC6F800C014
:10A9900009680190009210222846FFF799FE26E0F0
:10A9A000642901D0692922D1316801F1040CC6F86B
:10A9B00000C00968019000920A222846FFF7EAFECB
:10A9C00015E0752920D07829DDD073290FD13168A1
:10A9D0000B1D3360034609682846FFF73EFF06E07B
:10A9E00033681A1D326019782846FFF763FE013478
:10A9F000237863B314F8011B49B325293FF466AFEC
:10AA00002846FFF757FEF3E7316801F1040CC6F85A
:10AA100000C00968019000920A222846FFF758FEFC
:10AA2000E5E733681A1D32601F6830212846FFF7BA
:10AA300041FE78212846FFF73DFE002301930823BD
:10AA40000093102239462846FFF742FECFE72B7BC2
:10AA50000BB903B0F0BD2846FFF70FFEF9E72DE96B
:10AA6000F84F04468A469DF828B0B0F80690407921
:10AA700000FB09F00438191DB1FBF9F609FB1611AA
:10AA80001568EF18874200D9C51A156001E02468DF
:10AA9000013E002EFBD1A9EB0107AF4228BF2F4694
:10AAA000B0460BE03A46194609F0C8FA2468ED1B97
:10AAB000B8444F46A94528BF2F46314665B10AEB39
:10AAC00008032144081DBBF1000FEBD03A460146B4
:10AAD000184609F0B3FAE9E7BDE8F88F08B5FFF7C3
:10AAE0006DFD08BDF8B501464679701E0A46002383
:10AAF00001E0126801338342FBD31768002405E0AC
:10AB00000D683846FFF79FFD01342946A642F7D865
:10AB1000F8BD2DE9F8430746048A231F1944033181
:10AB2000B1FBF3F8FFF765FD0646F8B100250571A6
:10AB300001234371043CC4805FFA88F808F1FF38B0
:10AB400007608146454511D23846FFF752FD04465D
:10AB500040B1737901337371C9F8000007600135A2
:10AB60008146EFE73046FFF7BDFF26463046BDE899
:10AB7000F88308B501210430FFF7FEFC08BD10B5CD
:10AB8000044601210430FFF702FD10F0FF0F00D052
:10AB900010BD2046FFF7A6FFFAE700B585B0039287
:10ABA0000022009203AAFFF75AFF05B000BD00B5CE
:10ABB00085B003920122009203AAFFF750FF05B06F
:10ABC00000BD41DF7047000000B583B000238DF861
:10ABD00007300DF10700FFF785FCBFF35F8F054BD2
:10ABE0004022C3F884219DF80700FFF77FFC03B0E3
:10ABF00000BD00BF00E100E010B50024054B1C7053
:10AC0000054B1C60BFF35F8F0449054800F025F831
:10AC1000204610BD9C2D0020A02D0020684B020076
:10AC2000942D002008B5FFF7CFFF03F04BFE18B9B5
:10AC300020BF40BF20BF08BDFFF7C3FFFBE782680E
:10AC40000023936082681361826853618268D360D5
:10AC50008268536082681360704701600B684360CC
:10AC60004A68934200D0704700234360FBE7436883
:10AC700033B1026891680B4443605268934200D03C
:10AC8000704700234360FBE70E49A1F5947291429F
:10AC900015D9A1EB020C4FEADC7303EBEC035B105C
:10ACA00002EBC30C52F83330834201D96146EEE720
:10ACB00002D20CF10802EAE7DCF804007047002039
:10ACC000704700BF9C4C020008B5FFF7DDFF00B1E4
:10ACD00008BD0148FCE700BF9C4C0200BFF34F8F4A
:10ACE0000549CA6802F4E062044B1343CB60BFF32A
:10ACF0004F8F00BFFDE700BF00ED00E00400FA0544
:10AD00004FF0704393F8E03F062B01D000207047CE
:10AD10004FF07043D3F8E43F13F00F0F0DD14FF015
:10AD20007043D3F8E83F03F0F003302B07D0402BFB
:10AD300007D0502B07D0002070470020704701201B
:10AD4000704701207047012070474FF0704393F81F
:10AD5000E03F062B01D0002070474FF07043D3F83E
:10AD6000E43F13F00F0F09D14FF07043D3F8E83FE1
:10AD700003F0F003302B03D0002070470020704711
:10AD8000012070474FF0704393F8E03F062B01D04D
:10AD9000002070474FF07043D3F8E43F13F00F0FDB
:10ADA0000DD14FF07043D3F8E83F03F0F003302BA0
:10ADB00007D0402B07D0502B07D000207047002031
:10ADC00070470120704701207047012070474FF005
:10ADD000704393F8E03F062B01D0002070474FF0FE
:10ADE0007043D3F8E43F13F00F0F09D14FF07043D5
:10ADF000D3F8E83F03F0F003302B03D00020704776
:10AE000000207047012070474FF0704393F8E03FF7
:10AE1000062B01D0002070474FF07043D3F8E43F79
:10AE200013F00F0F0DD14FF07043D3F8E83F03F04C
:10AE3000F003302B07D0402B07D0502B07D0002039
:10AE400070470020704701207047012070470120A3
:10AE500070474FF0704393F8E03F062B01D000207D
:10AE600070474FF07043D3F8E43F13F00F0F09D150
:10AE70004FF07043D3F8E83F03F0F003302B03D0DA
:10AE80000020704700207047012070474FF070434A
:10AE900093F8E03F062B01D0002070474FF070433D
:10AEA000D3F8E43F13F00F0F09D14FF07043D3F8FC
:10AEB000E83F03F0F003302B03D000207047002060
:10AEC0007047012070474FF0704393F8E03F062B26
:10AED00001D0002070474FF07043D3F8E43F13F0E7
:10AEE0000F0F09D14FF07043D3F8E83F03F0F003A0
:10AEF000502B03D00020704700207047012070477E
:10AF00004FF0704393F8E03F062B01D000207047CC
:10AF10004FF07043D3F8E43F13F00F0F0DD14FF013
:10AF20007043D3F8E83F03F0F003302B07D0402BF9
:10AF300007D0502B07D00020704700207047012019
:10AF4000704701207047012070474FF0704393F81D
:10AF5000E03F062B01D0002070474FF07043D3F83C
:10AF6000E43F13F00F0F0DD14FF07043D3F8E83FDB
:10AF700003F0F003302B07D0402B07D0502B07D025
:10AF80000020704700207047012070470120704763
:10AF9000012070474FF08053D3F83031062B01D099
:10AFA000002070474FF08053D3F83431062B01D086
:10AFB0000020704701207047014B024A1A60704719
:10AFC000082500200090D00308B5FFF799FE40B196
:10AFD0004FF08053D3F82433C3F304238A4AC2F8D2
:10AFE0004035FFF7B2FE10B1884B894A5A67FFF728
:10AFF000C9FE48B14FF08053D3F84432C3F3423313
:10B000004FF08042C2F83C35FFF7E1FE30B1814A93
:10B01000D2F8FC3023F08073C2F8FC30FFF7F4FE66
:10B0200040B14FF080430022C3F80C21C3F8102137
:10B03000C3F83825FFF70DFF20B14FF080430322FE
:10B04000C3F8A025FFF722FF60B1734B0522C3F8B8
:10B0500010260122C3F888260022C3F818263F22B2
:10B06000C3F81426FFF72FFF002846D04FF0805278
:10B07000D2F80414694BC3F82015D2F80814C3F8A9
:10B080002415D2F80C14C3F82815D2F81014C3F8FC
:10B090002C15D2F81414C3F83015D2F81814C3F8CC
:10B0A0003415D2F81C14C3F84015D2F82014C3F894
:10B0B0004415D2F82414C3F84815D2F82814C3F85C
:10B0C0004C15D2F82C14C3F85015D2F83014C3F82C
:10B0D0005415D2F83414C3F86015D2F83814C3F8F4
:10B0E0006415D2F83C14C3F86815D2F84014C3F8BC
:10B0F0006C15D2F84424C3F87025FFF701FF48B15E
:10B100004FF08053D3F8583203F04F034FF0804292
:10B11000C2F8E43EFFF719FF60B14FF08043D3F867
:10B12000003413F0010F05D04FF080436FF001029F
:10B13000C3F80024FFF72EFF30B1394AD2F83C376C
:10B1400043F48063C2F83C374FF01023D3F80C323D
:10B1500013F0010F0ED14FF01023D3F80032002B63
:10B1600029DB4FF01023D3F80432002B23DBFFF749
:10B1700023FF08BD2B4B0122C3F80425294BD3F82C
:10B180000034002BFAD04FF01022D2F80C3223F00A
:10B190000103C2F80C32234BD3F80034002BFAD051
:10B1A000204B0022C3F804251E4BD3F80034002B9B
:10B1B000FAD0FFF793FD1B4B0122C3F80425194B6E
:10B1C000D3F80034002BFAD04FF010231522C3F827
:10B1D0000022144BD3F80034002BFAD04FF0102388
:10B1E0001522C3F804220F4BD3F80034002BFAD0F9
:10B1F0000C4B0022C3F804250A4BD3F80034002B73
:10B20000FAD0FFF76BFD00BF0030014000C00740DF
:10B210000DF0ADBA00ED00E00050004000C000406D
:10B220000010004000E001400346006808B10268D9
:10B230001A60704738B5054640B9064C2046FFF7FE
:10B24000F3FF28B1436828469847F7E7024CF5E733
:10B2500038BD00BFAC2D0020B42D002010B5044631
:10B2600010B1012C06D010BD054B01225A70FFF71A
:10B27000E1FFF6E70120024B9870FFF7DBFFF2E7F2
:10B28000A42D002000B1704708B5034B01225A706D
:10B29000FFF7D0FF08BD00BFA42D002008B500F0C7
:10B2A000B8F8024B00229A7008BD00BFA42D002000
:10B2B00010B50D4B1B781BB185231C46204610BDD5
:10B2C000094B00229A605A601A61DA60074800F060
:10B2D00089F8044603F0F6FA18B1034B01221A70FC
:10B2E000ECE700F08DF8F8E7A42D00205DB2010036
:10B2F00000B583B000238DF807300DF10700FFF78C
:10B30000F1F8074BDA68013ADA60DB682BB19DF897
:10B310000700FFF7EBF803B000BDFFF7BFFFF6E74C
:10B32000A42D002000B583B0012808D003281ED02A
:10B3300018B9114B0122C3F8802003B000BD0023CF
:10B340008DF807300DF10700FFF7CCF80B4B1B7899
:10B3500053B10A4BDA680132DA6001229A709DF823
:10B360000700FFF7C3F8E8E7FFF7A2FFF1E700F0F7
:10B3700047F8FFF7BDFFE0E700E100E0A42D002063
:10B38000044B1B7823B9034B01221A70002070472D
:10B3900085207047B82D0020002808DB4901C9B27C
:10B3A00000F1604000F5614080F80013704700F044
:10B3B0000F004901C9B2014B1954704714ED00E068
:10B3C00008B5074B1B6813F0010F00D008BD06211C
:10B3D0000020FFF7E1FF024B01221A60F6E700BFF1
:10B3E00000E100E0054B1B7933B9044B18600122E2
:10B3F0001A7100205871704785207047BC2D0020BD
:10B4000008B5FFF7DDFF4FF080430122C3F8182590
:10B4100008BD4FF080430122DA604FF08043D3F83B
:10B42000183413F4803FF8D17047000000B583B0A2
:10B430004FF08043D3F800319BB14FF0804300229E
:10B44000C3F80021D3F800210092009A0122C3F82A
:10B4500008230F4B5B7923B90D4B5A711B680020F1
:10B4600098474FF08043D3F804317BB14FF08043CD
:10B470000022C3F80421D3F804210192019A022288
:10B48000C3F80823024B1B680120984703B000BD96
:10B49000BC2D00202DE9F04182B08046144E0025DD
:10B4A000042708E09DF80700FFF720F8DFB126EA3F
:10B4B00004060135EDB2B6B100238DF807300DF169
:10B4C0000700FFF70FF80124AC402642EAD0094BF1
:10B4D0001B6814EA0302E5D1234306490B6088F890
:10B4E00000501746DEE7384602B0BDE8F08100BFE5
:10B4F000FFFF0100C42D00208C4691B19AB10123B9
:10B500008340C3F3100181B10A4909680B420ED090
:10B51000094BA23043F830C003EBC0035A6000204F
:10B5200070470E2070470E20704707207047082094
:10B53000704700BFC42D002000F00140012303FA32
:10B5400000F0B0F5003F0BD2C0F310031BB1064B67
:10B550001B68184206D0054BC3F80405002070474D
:10B560000720704708207047C42D002000F00140DC
:10B5700008B5024B1B68984708BD00BFC82D0020C6
:10B580004FF0A04300F5E07053F8202022F4403241
:10B5900043F8202053F8202042EA014243F82020BB
:10B5A000704700002DE9F04188B000250795012083
:10B5B0004FF48073294603E0400004339BB201310D
:10B5C000072912D803F1804202F5C0421468012C09
:10B5D000F2D1744CD4F804432042EDD0002414601E
:10B5E00012680492049A0543E6E76E4BD3F87C3167
:10B5F000012B07D015F0FF0F37D1002D38DB08B035
:10B60000BDE8F081674A0023C2F87C31D2F87C2182
:10B610000592059A45F000454FF0A042069207AA10
:10B62000002BE7D108A901EB830151F8081CD1F8E0
:10B63000101542F8041B0133F2E776000134072CA1
:10B64000DBD82E42F9D0574B04F5A27253F82200F2
:10B65000C0F3042053F82210C1F30141524B53F8B8
:10B660002430002BE9D09847E7E701260024E6E7DD
:10B6700000230193002B5FD108AA02EB83024FF055
:10B68000FF3142F8181C0133F4E7032F06D101A85B
:10B69000815C1943815427E0032935D00134032C00
:10B6A00046D8414B234493F95030D9B203F03F05BB
:10B6B000B3F1FF3FF2D0EA0803F00703012000FADC
:10B6C00003F308A800EBD50010F8180C0342E5D0EE
:10B6D0008F093549481990F9300051F82080B8F1A8
:10B6E000000FD2D0032FD2D005F5E0714FF0A0406B
:10B6F00050F82110C1F3014120326A4412F8042CA1
:10B700001342C9D00229C9D1032F06D0B8F1000FC6
:10B71000C4D039462846C047C0E7022906D00221D6
:10B720002846FFF72DFF0136F6B2EFE73946F7E777
:10B730002EB9002E3FF463AF00263446AFE74FF03A
:10B74000A0430693002303AA2BB1002373B1012366
:10B75000CBB10026EDE708A901EB830151F8081CE5
:10B76000D1F8101542F8041B0133EDE708AA02EBEB
:10B77000830252F8141C52F8042C914201D1013377
:10B78000E4E70023E4E7002BD3D108AA02EB83020D
:10B7900052F8141C42F8041C52F81C1C42F8181CE5
:10B7A0000133F0E700600040D02D0020002808DBC6
:10B7B0004901C9B200F1604000F5614080F8001312
:10B7C000704700F00F004901C9B2014B195470478E
:10B7D00014ED00E00B7803F003034A78120102F045
:10B7E000300213438A78120202F4E0621343CA78EB
:10B7F000120302F4805213430A79120402F4E02285
:10B8000013434A79120502F4801213438A7912060F
:10B8100002F080721343084A02EB001CCCF8183582
:10B8200091F807C0097A5130030102EB0010416022
:10B8300042F803C0704700BF0070004010B588B0E8
:10B84000674BD3F80431002B2CD0654B0022C3F892
:10B850000421D3F804310093009B624B93F82E200F
:10B8600012B193F82F30EBB100238DF814305D4BFB
:10B87000596806911989ADF81C10D968002964D05F
:10B88000584B188B5883596018810021D96012B920
:10B89000534B01221A60534C236805A89847002394
:10B8A00084F82F304F4B93F82E3053B34C4BD3F8D2
:10B8B000003133B34A4B0022C3F80021D3F80031E2
:10B8C0000193019B474A538B92F82D2093423ED916
:10B8D0009B1A9BB243494B834868098989B2CB1AAA
:10B8E00000EB43033E49C1F82C36C1F830263C4BEF
:10B8F0000022C3F80421D3F804210292029A012203
:10B900005A60374BD3F810317BB1354B0022C3F866
:10B910001021D3F810310393039B324B1A74022287
:10B920008DF814201B6805A898472D4BD3F81431C7
:10B9300043B32B4A0023C2F81431D2F814210592E4
:10B94000059A284A137408B010BD1974A3E79342EE
:10B9500008D09342CBD1234B012283F82F20002221
:10B960005A83C4E71F49C9680029F2D01D4B012042
:10B9700083F82F0000205883194BC3F82C16C3F806
:10B980003026B4E7174B5C69002CDCD0B4FA84F3A2
:10B990004FF00042DA4024EA020446339B0003F1F0
:10B9A000804202F5E04211680029EDD000211160CB
:10B9B00012680492049A01228DF81420A3F58C7366
:10B9C000C3F3C7028DF81820C3F3800383F001038B
:10B9D0008DF81930034B1B6805A89847D4E700BFC2
:10B9E000007000402C2E0020254B93F82C30002BAB
:10B9F00044D130B585B0224D29600378214CC4F87C
:10BA0000F0354378C4F8F435C37885F82E30012337
:10BA100085F82C3000232B7485F82D306B6185F868
:10BA20002F306FF00042C4F80823C4F80431D4F872
:10BA300004210392039AC4F80031D4F80021029241
:10BA4000029AC4F81431D4F814310193019B81781F
:10BA50000720FFF7ABFE0C4B80221A600223C4F8CC
:10BA6000043395F82E3013B10122C4F80423054B9A
:10BA70000122C3F80025002005B030BD0820704722
:10BA80002C2E00200070004000E100E0194B1B7CD0
:10BA90006BBB10B50C460B79012B1DD900F10C02C4
:10BAA000144B03EB42031B792BB9124A92F82D3049
:10BAB000013382F82D30E27900F10C010D4B03EBDC
:10BAC00041031A71227A5A712146FFF783FE2379C6
:10BAD000012B06D9002010BD074B0022C3F800251A
:10BAE000DCE7054B0122C3F800250020F3E7112015
:10BAF000704700BF2C2E002000700040404B1B7C84
:10BB0000002B7BD100B583B084463D4A01201074E0
:10BB10003C4B4FF0030EC3F808E3C3F82C16C3F8F0
:10BB2000300692F82D3083420FD900220BE0D3B2B9
:10BB3000344951334FEA031E01EB031300205860D0
:10BB400041F80E000132072AF1D90CF10C022C4BFE
:10BB500003EB4203197958792A4B0CF1510C4FEA47
:10BB60000C1203EB0C1CCCF80400995001221A6053
:10BB70005A6042F21073234AD2F804210AB9013BF9
:10BB8000F9D1204B0022C3F80021D3F80011019114
:10BB90000199C3F80421D3F804310093009B184B9A
:10BBA00093F82D30012B17D9002213E002F10C017C
:10BBB000134B03EB410393F804C093F805E0D3B2B1
:10BBC00010495133180101EB0313C3F804E041F8A5
:10BBD00000C00132072AE9D9094B93F82E3043B14E
:10BBE000084B0322C3F804230020054B187403B04C
:10BBF00000BD044B0222C3F80423F5E7112070476F
:10BC00002C2E002000700040024B187C003818BF1A
:10BC1000012070472C2E002000B583B0FFF7F4FF01
:10BC200018B3134B0022C3F81421D3F81421019246
:10BC3000019A2022C3F8042301229A600D4B1B7C39
:10BC4000022B07D042F210730A4A127C2AB1013B40
:10BC5000FAD102E0074B00221A74054B2022C3F8E8
:10BC60000823044B00225A60DA6003B000BD00BF15
:10BC7000007000402C2E002000B51FFA81FC4CEA19
:10BC8000024C030103F1804303F5E043C3F81CC5F4
:10BC900040004FF0800C0CFA00FC11F5006F21D031
:10BCA000DFF880E0431C4FF00041D940DEF814304B
:10BCB0000B43CEF814301C4BC3F804C3402383401D
:10BCC00040F2FF718A421DD0DFF858C0DCF8142022
:10BCD0004FF00041C1400A43CCF81420124AC2F888
:10BCE000043300BDDFF83CE0431C4FF00041D94075
:10BCF000DEF8143023EA0103CEF814300A4BC3F8FF
:10BD000008C3DBE7DFF81CC0DCF814204FF000416B
:10BD1000C14022EA0102CCF81420034AC2F80833D9
:10BD2000DFE700BF2C2E002000700040144B1B7C6E
:10BD300023BB10B500F10C02114B03EB42031B793E
:10BD40002BB10F4A92F82D30013B82F82D3000F1D3
:10BD50000C020B4B03EB420300241C715C71094A7B
:10BD600000F15103190102EB03135C60545040F2DF
:10BD7000FF720549FFF780FF204610BD1120704774
:10BD80002C2E00200070004000F8FFFF10B5174B6C
:10BD90006FF00042C3F80823154A8021C2F88010D2
:10BDA00001229A6042F21073104AD2F814210AB9A3
:10BDB000013BF9D100240D4BC3F800450D4B1C7419
:10BDC00000E00134072C0BD804F10C02094B03EB03
:10BDD00042031B79002BF4D0E0B2FFF7A7FFF0E796
:10BDE000044B002283F82C2010BD00BF00700040DF
:10BDF00000E100E02C2E002008B50346C27FFF2A98
:10BE000008D0817F79B1012101FA02F24FF0A041FF
:10BE1000C1F80C2500225A771A72184650F8082BE0
:10BE20005968904708BD012101FA02F24FF0A04184
:10BE3000C1F80825EEE7D0F8182102B9704700B51F
:10BE400083B00022C0F81821D0F818310193019B6B
:10BE50000846FFF7D1FF03B000BD000008B5024956
:10BE60000248FFF7E8FF08BD5C2E002000300040CC
:10BE7000002808DB4901C9B200F1604000F56140CB
:10BE800080F80013704700F00F004901C9B2014B60
:10BE90001954704714ED00E0F0B583B005460F4625
:10BEA0001646002401E00134E4B2B44216D204F193
:10BEB0005000800080B24FF48033A3402A58002AFB
:10BEC000F1D0D5F804231342EDD000232B502B588A
:10BED0000193019B3B6879689847E4E703B0F0BDA4
:10BEE00070B582B00E46057905EB45012F4B03EB8B
:10BEF0008103197A002956D104462C4B05EB4500E5
:10BF000003EB800C43F820207368CCF804300BE07E
:10BF1000226801F150039B009BB20020D050D358FF
:10BF20000193019B0131C9B263798B42F0D820683B
:10BF3000F17840F30730FFF79BFF236843F30731A5
:10BF4000C3F304334909012202FA03F3184840F805
:10BF5000213020687178D0F8043523F0030301F014
:10BF600003010B43C0F804352068B178D0F80835D8
:10BF700023F0030301F003010B43C0F808352068E8
:10BF80003178D0F8103523F00F0301F00F010B4387
:10BF9000C0F8103505EB4505044B03EB85031A7219
:10BFA000002002B070BD0820FBE700BF802E0020FB
:10BFB00000E100E003680122DA60704701F110033C
:10BFC000DBB29B00DBB20122D0F800C04CF80320AA
:10BFD000036801F5A87153F82100704708B50422E1
:10BFE00002490348FFF758FF08BD00BF802E00201C
:10BFF0000080004008B5042202490348FFF74CFFC7
:10C0000008BD00BF8C2E00200090004008B504221F
:10C0100002490348FFF740FF08BD00BF982E0020EB
:10C0200000A0004030B58DB084460D46D0F82431D4
:10C0300053B10023C0F82431D0F824310193019B7F
:10C04000D0F80431002B51D0DCF80431002B5FD044
:10C050000023CCF80431DCF804310293029B0DF18B
:10C060001C0E05F10C040FCCAEE80F002368CEF8CF
:10C07000003095F82E3053B12B7B012B42D0DCF8E9
:10C080004C250892022B40D0DCF84C350993002354
:10C09000CCF86031DCF860210492049ACCF85C3171
:10C0A000DCF85C310393039B95F8303013B195F8BD
:10C0B0002E3033B10023CCF80032AB60324BCCF8D9
:10C0C0000833DCF8C434CCF8C43413F0020F4FD07A
:10C0D00001238DF8183095F830300BB985F82F30E2
:10C0E0002B68696806A898470DB030BD8B68C0F80A
:10C0F000083302238B608B68C0F80433012303628A
:10C100004361F1E7DCF83C25BBE7DCF83C35BDE7F3
:10C11000CCF84831DCF848310593059B2B7B9BB963
:10C1200007AC05F10C0EBEE80F000FC4DEF80030BE
:10C13000236095F83030002BC3D1CCF80032AB60CF
:10C14000114BCCF80833BCE74FF40073CCF8003245
:10C1500040F20223AB6003F1CE73CCF80833AB6836
:10C16000CCF804330123CCF80830CCF82030BBE7FE
:10C1700013F0040F03D002238DF81830ABE700232F
:10C180008DF81830A7E700BF02029C0108B50349EB
:10C190004FF04020FFF746FF08BD00BFA42E00204F
:10C1A0000346827AC17A42EA0122092A40F2A28039
:10C1B00000201A7B597B42EA0122092A01D801306A
:10C1C00080B29A7BD97B42EA0122092A01D8013048
:10C1D00080B21A7C597C42EA0122092A01D8013036
:10C1E00080B29A7CD97C42EA0122092A01D8013026
:10C1F00080B21A7D597D42EA0122092A01D8013014
:10C2000080B29A7DD97D42EA0122092A01D8013003
:10C2100080B21A7E597E42EA0122092A01D80130F1
:10C2200080B29A7ED97E42EA0122092A01D80130E1
:10C2300080B21A7F597F42EA0122092A01D80130CF
:10C2400080B29A7FD97F42EA0122092A01D80130BF
:10C2500080B293F8202093F8211042EA0122092AA3
:10C2600001D8013080B293F8222093F8231042EADB
:10C270000122092A01D8013080B293F8242093F8D2
:10C28000251042EA0122092A01D8013080B293F830
:10C29000262093F8271042EA0122092A01D801300A
:10C2A00080B293F8282093F8291042EA0122092A43
:10C2B00001D8013080B293F82A2093F82B1042EA7B
:10C2C0000122092A01D8013080B293F82C2093F87A
:10C2D0002D1042EA0122092A01D8013080B293F8D8
:10C2E0002E2093F82F3042EA0323092B01D8013086
:10C2F00080B2704701205CE700B500F10A0E0A31F8
:10C300000023184605E0A2EB0C0292B20DE00133C7
:10C31000DBB2122B0ED83EF813C031F8132094452F
:10C32000F1D9ACEB020C1FFA8CF2952AEFD901304F
:10C3300080B2ECE700BD00B500F13A0E3A310023BF
:10C34000184605E0A2EB0C0292B20DE00133DBB21D
:10C350000B2B0ED83EF813C031F813209445F1D9B9
:10C36000ACEB020C1FFA8CF24F2AEFD9013080B2ED
:10C37000ECE700BDA2B170B504460D46FFF7BCFF67
:10C38000064629462046FFF7D6FF012E02D9012096
:10C39000C0B270BD012801D90120F9E70020F7E7FC
:10C3A000012070470368002B00DC704710B504467D
:10C3B000044804F0D1F9034805F089FF0023236005
:10C3C00010BD00BF4C2F002008B54FF400410020E5
:10C3D000FDF76EF9FDF7AAF808BD08B504F05EF8A0
:10C3E00003F0B4FF03F0D0FE03F046F903F0F8FCCD
:10C3F00004F0CAF8FFF7E8FF06F07CF802F026FC2C
:10C4000008BD000008B503F0EFFC432814BF4FF04F
:10C41000000C4FF0010C1E4A13781E4901F803C0AE
:10C420000133DBB21370042B02D9134600221A70B9
:10C43000194B1B78042B02D80133174A1370432879
:10C4400009D0164B1B78FF2B02D00133134A13700F
:10C4500000231A4609E0114B00221A70F8E70D4933
:10C46000C95C0A44D2B20133DBB20B490978994264
:10C47000F5D8022A03D90A4B01221A7008BD074BCE
:10C480001B78022BFAD9064B00221A70F6E700BF80
:10C49000362F0020382F0020352F0020342F002089
:10C4A000332F00202DE9F041ADF5846D044608AE30
:10C4B0004FF480652A460021304607F0F1FD2078D0
:10C4C000637840EA0320A37840EA0340E37840EA37
:10C4D00003602379627943EA0223A27943EA0243A3
:10C4E000E27943EA0263A27AE17A42EA0127227BF7
:10C4F000617B42EA012CA27BE17B42EA012E227C95
:10C50000617C42EA0122A17C94F8138041EA08216F
:10C5100089000691920005924FEA8E0204924FEA3A
:10C520008C020392BF000297009001939D4A294616
:10C53000304606F0D0FB85B2237D627D43EA0223BC
:10C54000A27DE17D42EA012C227E617E42EA012E3B
:10C55000A27EE17E42EA0122217F677F41EA072134
:10C56000914F89000391920002924FEA8E0201924C
:10C570004FEA8C0200929B003A46C0F5806130443D
:10C5800006F0A9FB0544ADB2A37FE27F43EA022394
:10C5900094F8202094F8211042EA012094F82220F7
:10C5A00094F8231042EA012C94F8242094F82510E2
:10C5B00042EA012294F8261094F827E041EA0E217D
:10C5C00089000391920002924FEA8C02019280004E
:10C5D00000909B003A46C5F58061701906F07BFB20
:10C5E0000544ADB294F8283094F8292043EA022398
:10C5F00094F82A2094F82B1042EA012294F82C1087
:10C6000094F82D0041EA002194F82E0094F82F7040
:10C6100040EA0720654F8000029089000191920056
:10C6200000929B003A46C5F58061701906F053FBF5
:10C630000544ADB294F830C094F831304CEA032C84
:10C6400094F8323094F8332043EA02231BB294F872
:10C65000342094F8351042EA012212B294F83610D0
:10C6600094F8370041EA002109B294F8380094F8B0
:10C6700039E040EA0E2000B203900291019200934B
:10C680000FFA8CF34A4AC5F58061701906F023FB56
:10C690000544ADB294F83A3094F83B2043EA0223C3
:10C6A00094F83C2094F83D1042EA012294F83E10A0
:10C6B00094F83F0041EA002194F8400094F841C00A
:10C6C00040EA0C2000EB4000029001EB4101019197
:10C6D00002EB4202009203EB43033A46C5F5806148
:10C6E000701906F0F8FA0544ADB294F8423094F8A7
:10C6F000432043EA022394F8442094F8451042EA88
:10C70000012294F8461094F8470041EA002194F879
:10C71000480094F849C040EA0C2000EB4000029029
:10C7200001EB4101019102EB4202009203EB430352
:10C730003A46C5F58061701906F0CDFA0544ADB2F0
:10C7400094F84A3094F84B2043EA022394F84C20A2
:10C7500094F84D1042EA012294F84E1094F84F00DC
:10C7600041EA002194F8500094F8514040EA042036
:10C7700000EB4000029001EB4101019102EB42020B
:10C78000009203EB43030B4AC5F58061701906F074
:10C79000A2FA291889B2304604F04EFC0DF5846DDA
:10C7A000BDE8F081A8480200C0480200D04802005D
:10C7B000E0480200F048020008B503F047FB114BC7
:10C7C0001B787BB140F67953984218D90D4B002263
:10C7D0001A700D4B1B786BB140F6795398420CD907
:10C7E000002008E040F6B1439842F2D80120054B02
:10C7F000187001E01846C0B208BD0120FBE7012017
:10C80000FAE700BF322F0020332F002038B503F0A5
:10C81000C3FD104B1B7823B904460D460E4B1B7805
:10C820000BB1012038BD04F001FC0028F9D10B4BFD
:10C83000D3E900231A43F5D0084BD3E90023A01A0B
:10C8400065EB0301064B984271F1000134BF0120F2
:10C850000020E7E7492F0020482F0020402F00202C
:10C86000C1D4010038B5044615460846FFF79AFDC5
:10C87000FA2003F0BFFD04F0B3FB01E003F0E5FD97
:10C8800003F08AFD236841F288329B18626842F106
:10C89000000C984271EB0C01F0D303F07DFDC4E96C
:10C8A000000103F04BFAFFF7ADFD35B1FFF784FF50
:10C8B0000028E5D104F0B2FB38BDFFF77DFF00286A
:10C8C000DED104F0B3FB0028F4D10146084804F09F
:10C8D000CDFB084B1A7808490548FFF74BFD0028A7
:10C8E000E8D10348FFF75CFC0E28C9D8E2E700BF97
:10C8F000A82F0020DE2E0020E02E0020F0B587B00B
:10C90000A44803F096FDFFF768FD00220023CDE95F
:10C91000042300252E4601E003F097FD03F03CFDC3
:10C92000049B7D33059A42F1000298429141F3D372
:10C9300003F032FDCDE90401974B1B78F3B9974A18
:10C9400013780133DBB21370072B21D91346002271
:10C950001A7003F0F3F9924A13780133DBB21370C3
:10C96000042B0FD8FFF728FF0028D7D001228D49CC
:10C9700004A8FFF777FF00252E46CFE7864B00225D
:10C980001A70CBE7134600221A70FFF73BFDE9E768
:10C99000854C0021204604F069FB2146834805F0C0
:10C9A00079F8804A136801331360B3F5166F80F28B
:10C9B000BA807F4F7F4BFF1AFF083F0447F0030701
:10C9C000794C2268636823899BB27B493846FDF71E
:10C9D00056F86289B4F80CC0E18989B2208A80B225
:10C9E000638A9BB20293019000911FFA8CF392B27A
:10C9F00072493846FDF75BF8A28AB4F816C0218B5D
:10CA000089B2608B80B2A38B9BB20293019000919C
:10CA10001FFA8CF392B26A493846FDF748F8E28B68
:10CA2000B4F820C0618C89B2A08C80B2E38C9BB238
:10CA30000293019000911FFA8CF392B2614938463B
:10CA4000FDF735F8228D638DA18D89B2E08D80B21E
:10CA5000019000919BB292B25B493846FDF719F8FC
:10CA6000228EB4F832C0A18E09B2E08E00B2238FBC
:10CA70001BB20293019000910FFA8CF312B253494A
:10CA80003846FDF714F8B4F83CC0B4F840E0B4F808
:10CA9000441089B2B4F8480080B2B4F84C309BB26C
:10CAA000B4F8502092B203920293019000911FFAC1
:10CAB0008EF31FFA8CF246493846FDF708F8628F6C
:10CAC000B4F83EC0B4F8421089B2B4F8460080B25F
:10CAD000B4F84A309BB2B4F84E40A4B20394029327
:10CAE000019000911FFA8CF392B23A493846FCF754
:10CAF000EEFFFCF755FE0028FBD12B48FFF7D2FCD8
:10CB0000FFF75AFED0B10122264904A8FFF7AAFE7A
:10CB100000252E46522224492F4807F08FFA2F4B2A
:10CB200001221A70FAE6214C204603F015FE204639
:10CB300005F0CDFB1B4B00221A603AE7FFF766FEBB
:10CB4000002851D1254B1A7823491748FFF712FCCA
:10CB500000284CD1224B1B7873B143F697239D429A
:10CB600002D87D359D4245D900220E4904A8FFF721
:10CB700079FE00252E46CDE71A4B9E4202D87D361F
:10CB80009E4239D90022074904A8FFF76BFE002511
:10CB90002E46BFE7A08601004A2F0020DD2E002090
:10CBA000DC2E0020D82E0020A82F00204C2F0020A3
:10CBB00030430200E8420200004902001849020026
:10CBC0003049020048490200644902007C490200E1
:10CBD00090490200A8490200E02E0020DE2E00202D
:10CBE000332F00201FBF020000252E4692E70025AC
:10CBF0002E468FE700268DE700258BE70369C26884
:10CC0000934204D881688A1A1344581E7047981AB0
:10CC1000013870472DE9F84304461646C568876811
:10CC2000A7EB0508904507D94068284407F006FAA5
:10CC30003544E560BDE8F8834068424689462844AB
:10CC400007F0FCF9ED1B35442A464946414460682B
:10CC500007F0F4F9E560EDE72DE9F843064688466C
:10CC60001746C5684FF000091AE0B2685B1B1A440A
:10CC7000013AB3685C1B944228BF1446BC4228BFEB
:10CC80003C46706822464146284407F0D7F9A14443
:10CC9000A0443F1B2544B368AB4207D0F5603FB1C9
:10CCA00033699D42E1D25B1B5A1EE2E70025F5E79E
:10CCB0004846BDE8F883000010B5134C02232361F9
:10CCC00063611249A161124BE3614FF40073236267
:10CCD0000023A36263620122E262A1640D49E16460
:10CCE00010212165A3656365E26504220A49E01D00
:10CCF00007F0A4F9094B93E803002060A180090C18
:10CD0000A1712023A37110BD0C320020C049020084
:10CD10000C300020FC2F0020CC490200D04902003A
:10CD20002DE9F0410F4615469046431C03EB4302A4
:10CD3000184B03EBC2010E4600EB400003EBC003AF
:10CD4000DC6A012C0ED0022C1BD00CBB0846FFF76E
:10CD500055FF854212D82C462A4639463046FFF701
:10CD600059FF0BE00846FFF749FF4446804528BFBE
:10CD70000446224639463046FFF74CFF2046BDE8C0
:10CD8000F0812A4639463046FFF766FF0446F5E74C
:10CD90000024F3E70C32002008B5FFF78DFF08BD33
:10CDA0006DDF704779DF70477DDF704764DF704764
:10CDB000F0B583B006460F461546017801293FD0ED
:10CDC0002A88901C984249D8012904D171781144CD
:10CDD00002318B4244D39C1AA4B2023CA4B2ADF8F7
:10CDE0000640288802300DF106013844FFF7DCFFC9
:10CDF00020BB3378022B04D07178BDF80620914215
:10CE000003D3BDF80620A24226D9012B1DD0ADF8D0
:10CE100006400822BDF80630FE2B23D829880133AE
:10CE20007B542B8801339BB22B80FA542B8801331F
:10CE30009BB22B80BDF8062013442B8003B0F0BDBD
:10CE40004278002ABCD10720F8E77378A342DED8E5
:10CE5000ADF806300822DDE70922DBE70C20EDE71C
:10CE60000C20EBE70C20E9E70B880433934220D831
:10CE700030B583B005460C460DF10600FFF792FF72
:10CE8000A8B923880322EA54238801339BB2238064
:10CE90001922EA54238801339BB22380BDF806206F
:10CEA000E918EA54120A4A7023880233238003B037
:10CEB00030BD0C20704700B5B2F800C00CF1030E75
:10CEC0009E4514D8022301F80C30138801339BB21D
:10CED00013804FF0010C01F803C0138863449BB228
:10CEE0001380C854138863441380002000BD0C20B5
:10CEF000FCE700B5B2F800C00CF1030E9E4514D853
:10CF0000022301F80C30138801339BB213804FF0D9
:10CF10000A0C01F803C0138801339BB21380C85474
:10CF2000138801331380002000BD0C20FCE72DE99D
:10CF3000F04F85B00646009190469A460E9FBDF888
:10CF40003CB0B7F8009000252C46CDF8049011E0D5
:10CF500002212AE03A8852440DF10B0103A8FFF7A1
:10CF600025FF0346002844D13B889DF80B2013443D
:10CF70003B8001343388A3422BDD71680DF10C092D
:10CF8000042201EB8401484607F058F800220DF115
:10CF90000B014846FFF70AFF034650BB9DF80B30D4
:10CFA0004345E6D1002DD3D001463A8813440B44C3
:10CFB0005B450CDC002DCDD1013292B23A80009B52
:10CFC0000AF802303B8801333B800125C2E70C237D
:10CFD0000FE0DDF804905DB13B88A3EB09039BB241
:10CFE000013B9BB2FF2B08D80AF80930002300E070
:10CFF0002B46184605B0BDE8F08F0C23F9E7F0B5D5
:10D0000083B0074616461D46BDF824400194DDF85E
:10D0100020C0CDF800C00222FFF789FF08B103B09D
:10D02000F0BD0194089B00932B46102231463846F0
:10D03000FFF77DFFF3E70388052B1AD9A3F681429A
:10D0400092B24FF27D318A4215D94288052A14D90D
:10D05000A2F6814189B24FF27D3081420FD94FF65D
:10D06000FF718B420DD08A420DD093420DD8002023
:10D070007047072070470720704707207047072038
:10D080007047002070470020704707207047F8B5B0
:10D0900014461688B21D9A4222D807460D46FFF75D
:10D0A000CAFFE0B90523AB55238801339BB2238027
:10D0B0001222EA54238801339BB223803A88E9186C
:10D0C000EA54120A4A70238802339BB223807A887A
:10D0D000E918EA54120A4A70238802332380F8BD03
:10D0E0000C20FCE770B582B00B88093393422AD834
:10D0F00005460C466846FFF753FE064628BB2388C4
:10D100000822EA54238801339BB223801B22EA546D
:10D110002088013080B2208006220DF101012844D0
:10D1200006F08CFF238806339BB223809DF80020F5
:10D13000012A05D90122EA5423880133238004E01F
:10D140000022EA54F8E70C231E46304602B070BDB8
:10D1500038B505468C4614468288023220888118EC
:10D160000231994227D8FE2A27D801320CF8002034
:10D17000238801339BB22380FF220CF803202388ED
:10D1800001339BB223802A880CEB03010CF80320A7
:10D19000120A4A702088023080B22080AA8872B1B8
:10D1A000A96871B1604406F049FF2388AA88134436
:10D1B0002380002004E00C2002E00C2000E0104658
:10D1C00038BD0720FCE7836A002B3DD02DE9F041F4
:10D1D00080460F461446002501E00135EDB298F86F
:10D1E0002C30AB422DD9D8F8282005EB4506B100EC
:10D1F00002EB8606B3880233FE2B27D82088013342
:10D200003B54238801339BB223801620F854238893
:10D2100001339BB22380525AF918FA54120A4A7009
:10D220002088023080B22080B288002AD5D0B16830
:10D2300071B1384406F002FF2388B288134423807A
:10D24000CBE70020BDE8F081072070470C20F9E70C
:10D250000720F7E7F0B583B004460E461546178859
:10D2600000222A8090F82D20002A35D1A378002BA7
:10D270003BD1E078002841D1606840B13B462A4666
:10D28000314690F90000FFF734FE024608BB2389BF
:10D29000002B3DD1238A002B47D1238B002B51D16A
:10D2A000206A30B13B462A463146FFF7F0FE02467F
:10D2B00078B9606A30B13B462A463146FFF748FFED
:10D2C000024630B994F82C30002B48D12378002B3B
:10D2D0004FD1104603B0F0BD3A4629463046FFF71D
:10D2E00001FF02460028C1D0F3E73A4629463046FE
:10D2F000FFF7BAFD02460028BBD0EAE73B462A46C4
:10D30000314640B2FFF7D7FD02460028B4D0E0E72F
:10D310000197009533460622022104F10800FFF729
:10D320006EFE02460028B5D0D3E70197009533463C
:10D330000722032104F11000FFF761FE02460028D6
:10D34000ABD0C6E70197009533461522142104F1AE
:10D350001800FFF754FE02460028A1D0B9E73B466B
:10D360002A4631462046FFF72EFF02460028ADD060
:10D37000AFE73B462A4631462046FFF719FD0246F5
:10D38000A7E728B300B58646F2B14FF0000C08E0DD
:10D390008C450FD21EF80C00604480B201301FFA99
:10D3A00080FC10886045F3D80CF101001EF80000E5
:10D3B0009842EDD18C4509D20CF1020313801EF87E
:10D3C0000C00013880B200BD1046FCE70020FAE7EF
:10D3D000704710B582B0044613460022ADF806200F
:10D3E0000DF10602FFF7CDFF18B1BDF8063020465B
:10D3F000184402B010BD0000132801D90020704766
:10D4000010B5044601460548FDF774F82146034B64
:10D41000181FFDF76FF8012010BD00BF8C320020EF
:10D4200038B50546002407E0054800EB840029468E
:10D430000430FDF76BF801341C2CF5D938BD00BF62
:10D440008432002008B501460148FDF75FF808BDA9
:10D450008C32002030B583B0054601910023036073
:10D46000019B93B9284603B030BD0134132CF9D881
:10D47000214601A8FDF757F80028F6D02B685A1C62
:10D480002A6005EB43039C80EFE70024EEE70000F1
:10D4900010B598B0134A9368DB431793516817A8E7
:10D4A000FDF75FF817996C466846FFF7D3FF0DF15B
:10D4B000300C0FCCACE80F000FCCACE80F0094E8B8
:10D4C00007008CE80700002407E018AB03EB4403D7
:10D4D00033F82C0CFFF7A4FF01340C9BA342F4D8C3
:10D4E00018B010BD8432002038B585880388112B10
:10D4F00016D004461A2B17D0102B14D1FFF7C8FFF3
:10D500002846FFF779FF38B1E37B012B0BD0294682
:10D510001448FCF7EFFF06E00420FCF727FC02E0CC
:10D520002846FFF78FFF38BD037A1C091F2B0FD940
:10D5300029460D48FCF7DEFF022C04D929460B488A
:10D54000FCF7D8FFEFE729460848FCF7DFFFEAE7DA
:10D55000054C29462046FCF7D9FF2946201DFCF73B
:10D56000D5FFE0E79032002094320020983200206E
:10D57000132801D90020704708B501460148FCF77F
:10D58000D2FF08BD8832002010B50446FFF7F0FF37
:10D5900008B1204610BD1420FCE775DF704776DF28
:10D5A00070477ADF70477BDF7047000000230BB1C4
:10D5B0000020704703EB8302054931F822208242A4
:10D5C00001D00133F3E703EB830301EB83007047E2
:10D5D0002033002030B5B0F804C002EB0C059445B0
:10D5E00094BFACEB0C0CACEB020CC2889C189A42BA
:10D5F00094BF921AD21A4B88B0F800E073450ED34C
:10D60000408883420DD88B8863450CD3AB420CD83D
:10D61000CB8893420BD3A3420BD8012000E000201B
:10D6200030BD0020FCE70020FAE70020F8E70020EA
:10D63000F6E70020F4E7000008B5024B9B6903B150
:10D64000984708BD0433002010B5FFF7A6FF044635
:10D6500008B1112803D1B4FA84F0400910BDFFF7D6
:10D66000EBFFF8E730B583B084B22046FFF79EFFAA
:10D6700098B1027A154B1B7B9A4210D30023037298
:10D68000124B1B7CBBB9114B5B6933B100228DF887
:10D690000420ADF8064001A8984703B030BD054608
:10D6A00000F10A012046FFF7CFFF0028F5D02B7AC2
:10D6B00001332B72F1E73B212046FFF770FF002872
:10D6C000E1D00828DFD0FFF7B7FFDCE70433002004
:10D6D00010B58088FFF76AFF38B104464068FCF750
:10D6E000A3FE18B94FF6FF73238010BDFFF7A4FF08
:10D6F000F8E7000000B583B002460B46497A69B9E5
:10D70000197A41B90C4949685868FCF76FFE88B12D
:10D71000FFF792FF0EE008498968F5E700211972CA
:10D72000054B5B6933B101218DF80410ADF806009B
:10D7300001A8984703B000BD04330020F8B5C37BAF
:10D740008288012B1FD1044617464FF6FF70FFF762
:10D750002DFF0546C0B12F800023037200F10A039C
:10D7600008220E491E46184606F068FC4FF6FF7365
:10D7700040F2F31204F110013046FFF72BFF6872FC
:10D78000074BDB8923B1F8BD0420FFF755FFFAE70B
:10D7900029463846FFF7AEFFF5E700BFFC32002010
:10D7A0000433002070B5064684882046FFF7FEFE4D
:10D7B00070B105464FF6FF7340F2F312314608315F
:10D7C0000A30FFF707FF687229462046FFF792FFED
:10D7D00070BD0000C288114BDB899A4200D07047AF
:10D7E000038A022BFBD170B5044685882846FFF7D3
:10D7F000DDFE064648B123461233184600F0BEF857
:10D8000020B131462846FFF775FF70BD7068FCF700
:10D810000BFE0028F9D0FFF70FFFF6E704330020D6
:10D8200008B50388122B0FD006D8102B09D0112B66
:10D8300009D1FFF74DFF06E0502B04D1FFF7CAFFD7
:10D8400001E0FFF77BFF08BDFFF7ACFFFBE700003F
:10D85000002839D010B50446DFF874C08646BEE80B
:10D860000F00ACE80F009EE807008CE80700194B9A
:10D87000ACF110021360206858B1FFF792FE38B97E
:10D8800008222168134806F0D9FB00243CB100208F
:10D8900010BD1048FFF787FE0028F6D0F8E70E4BC2
:10D8A00004EB840203EB82004FF6FF7123F8221091
:10D8B0000A4B03EB44134360094A21460430FCF74A
:10D8C0007FFD18B90134E1E70E2070470320DFE740
:10D8D00004330020FC3200202033002034330020A9
:10D8E00065D60100AADF70470B7823F00F030B7099
:10D8F000DBB223F0F0030B70032829D00DD90428E4
:10D9000031D0052819D10B78022262F303030B7082
:10D91000DBB262F307130B70704701280ED00228A8
:10D920000AD10B78012262F303030B70DBB20222EF
:10D9300062F307130B707047704770470B78012232
:10D9400062F303030B70DBB262F307130B707047D3
:10D950000B78012262F303030B70DBB2032262F344
:10D9600007130B7070470B78022262F303030B70EE
:10D97000DBB2012262F307130B707047007800F0EE
:10D9800001007047F0B591B006460C4617468B78FB
:10D99000002B40F0BA8001238DF80E302388ADF8BB
:10D9A0000C3002A90023ADF808308B70607CFFF7C3
:10D9B0009BFF0DF10901A07CFFF796FFE27B9DF82C
:10D9C0000A3062F3C3038DF80A30227CDBB262F3C3
:10D9D00004138DF80A30227BDBB262F300038DF86A
:10D9E0000A30237D002B00F0938002229DF80A303C
:10D9F00062F342038DF80A30002109910A910B91DC
:10DA00000C910D910E910F91637B13F0100F02D1C9
:10DA100013F0200F1DD00023ADF800308DF8023038
:10DA20000DF10101E07CFFF75FFF9DF8002001236D
:10DA300063F303028DF80020D2B263F307128DF86E
:10DA400000209DF8022063F342028DF80220CDF8F9
:10DA500038D0637B8DF82430A37B8DF825300021EE
:10DA60000491059106910791089103AB049302ABD1
:10DA70000593A388ADF81C30A36823B1E388ADF803
:10DA80001830A3680893A369002B33D001A90022A2
:10DA9000ADF804208A701A88ADF82C205A88ADF8A9
:10DAA0002E205A680A920D91187BFFF71DFFA3697B
:10DAB0000DF10501587BFFF717FFA369997A9DF8CF
:10DAC000062061F3C3028DF80620D97AD2B261F341
:10DAD00004128DF80620197AD2B261F300028DF893
:10DAE00006209B7BB3B102229DF8063062F342030D
:10DAF0008DF80630E36903B10C933B4604AA09A9EB
:10DB00003046FFF7EFFE11B0F0BD8DF80E3045E75F
:10DB100001226BE70122E7E772DF704773DF70478E
:10DB200090F8B40070470023052B03D8C25C1AB9E3
:10DB30000133F9E70020704701207047431C044877
:10DB400080FB0320401000EB8000181AC0B2704721
:10DB500067666666CB7B012B00D070478B88A0F888
:10DB6000A830FAE738B505460C46AB30FFF7DBFFC7
:10DB7000032C07D00ED8012C10D0022C08D1EB7941
:10DB800003B1B0B92B7AB3B96B7AB3B9184638BDC3
:10DB90000020FCE7042CF7D00020F8E7AB79002B3D
:10DBA000EDD095F82430002BE9D10028E7D02046AD
:10DBB000EDE70220EBE70320E9E70420E7E703466F
:10DBC000012280F831200020C3F8A400AA334B6062
:10DBD000886002230B7080238B81704703460222EA
:10DBE00080F8312003220A7002698A810020C3F87C
:10DBF000A40003F1AA024A60DB688B60704708B595
:10DC000043793BB190F8B23033B9FFF789FF10B1D7
:10DC1000012000E0184608BD0020FCE7837813B11E
:10DC200090F820304BB9836A042B08D0436A042B48
:10DC300001D001207047002070470020704700206D
:10DC400070470368013B012B01D900207047012078
:10DC5000704738B504460D460122B0F89810D0F848
:10DC60009400FFF7B6FB00B1057004F13C0204F12B
:10DC7000940104F15400FFF74FFF38BD38B5044656
:10DC80000D4643698B6083698B81012380F83C30AA
:10DC9000FFF7B5FF40B9032384F8313004F1940352
:10DCA000C4F8A430002038BD02232B75042120467F
:10DCB000FFF7CFFF0028F6D1052384F83130EDE7D8
:10DCC00038B504460D46C3698B60036A8B81012316
:10DCD00080F83C30FFF793FF40B9042384F83130DB
:10DCE00004F19403C4F8A430002038BD02232B753E
:10DCF00004212046FFF7ADFF0028F6D1062384F863
:10DD00003130EDE780F830107047002900F0858051
:10DD100070B504460E46002800F0828001F17800BC
:10DD2000FFF77CFF00287DD00025A57004F1040CCE
:10DD300006F1780EBEE80F00ACE80F00BEE80F0059
:10DD4000ACE80F009EE807008CE8070084F830502C
:10DD5000D6F8A4306363D6F8A830A3634FF6FF73F8
:10DD6000A4F8A83004F19403C4F8A43084F8AA50AD
:10DD700084F8AB5084F8AC5084F8AD5084F8AE50C1
:10DD800084F8AF5084F8B050237813B9FF2384F897
:10DD9000543004F15501C4F8941094F82430A3B31E
:10DDA0001F23A4F8983004F198023046FFF752FA86
:10DDB0000346C0BB04F17401C4F89C1094F82430ED
:10DDC0003BB31F23A4F8A03004F1A00206F13C00ED
:10DDD000FFF740FA034630BB012384F85130A269B3
:10DDE000A4F8482084F83C300146206484F85000B0
:10DDF0006369636404F13C0204F15400FFF78CFE94
:10DE0000034680B9012222700DE01F23A4F8983048
:10DE1000C9E71F23A4F8A030D6E70E2318467047A1
:10DE20000E2300E00723184670BD0378002B00F096
:10DE3000A78070B504460D468170002280F8AA20A4
:10DE400080F8AB2080F8AC2080F8AD2080F8AE20C0
:10DE500080F8AF2080F8B02083790BB9C3790BB17B
:10DE6000012D03D0E3794BB1022D07D1636B002B59
:10DE70003DD0012284F8B120082098472946204649
:10DE8000FFF770FEA070636B1BB10338C0B20128AE
:10DE900030D9002384F8B33004F13C051822002166
:10DEA000284606F0FDF8012384F83C3004F12C03E9
:10DEB0001E461846FFF7C5FE58B3E36A84F8513092
:10DEC00094F8243033B13046FFF7BBFE28B3A36A81
:10DED00084F85230A378022B33D022D9032B35D0CB
:10DEE000042B25D129462046FFF7EAFE20E084F8DE
:10DEF000B130C3E76279002ACBD094F8B220002A6F
:10DF0000C7D184F8B420012284F8B32007209847B1
:10DF1000C2E7012384F85130D2E7012384F852305C
:10DF2000D8E7C3B1012B03D129462046FFF747FEAE
:10DF3000A3789BB9636B2BB394F83100984700200A
:10DF400070BD29462046FFF749FEF1E729462046E5
:10DF5000FFF794FEECE784F83130E9E72A46D4F87D
:10DF6000A41004F15400FFF7D7FD0028E8D194F87D
:10DF7000301094F85400FFF7D1FD0028DAD0DFE725
:10DF8000082070471846DBE7002380F8B2308A8803
:10DF9000B0F8A8309A4200D0704710B50446037913
:10DFA00003B110BD0121FFF740FF0028F9D0A36B9A
:10DFB000002BF6D09847F4E70B88262B04D10B7A78
:10DFC000013BDBB2012B00D9704710B504468078C5
:10DFD000FFF7B4FD01462046FFF727FF10B1A26B03
:10DFE00002B1904710BD08B5034608461A88112AA9
:10DFF00007D0262A09D0102A02D11946FFF7AAFD18
:10E0000008BD1946FFF7C0FFFAE71946FFF7D4FF2E
:10E01000F6E77047E2B138B50446154600231360B1
:10E02000C0B10368C3B1C38813F0030F16D108460B
:10E03000FFF7AAFAC3B2142B12D022799A4211D94F
:10E040002368E288C0B202FB00332B60002038BD99
:10E050000E2070470E20FAE70E20F8E70720F6E7BB
:10E060000520F4E70420F2E7A5DF7047B5DF70472D
:10E07000F723038017234380002303714371704704
:10E0800008B58B8803EB430300EB43000630FFF732
:10E09000EFFF08BD70B582B005468C88498904EB56
:10E0A000440200EB4202D3888B4228BF0B46138107
:10E0B000172B38BF17231381C6687EB104EB4402C7
:10E0C00000EB4202D27A4AB140F67722ADF8002046
:10E0D000ADF80240ADF804306946B04704EB4403A4
:10E0E00005EB43030022DA729A7202B070BD0000A1
:10E0F00038B505468C88CB7B012B08D004EB440354
:10E1000005EB4303D9881B89994207D838BD02889B
:10E1100004EB440300EB4303DA80EFE72046FFF70C
:10E12000A3FF30B904EB440405EB44040123E3727C
:10E13000ECE7112806D104EB440405EB4405012368
:10E14000AB72E3E7074C084AA41AE408240444F03D
:10E150000104FCF7B9FD024604492046FBF786FCA2
:10E16000D4E700BF48430200E8420200D849020059
:10E1700070B582B005468C88CA88172A38BF172226
:10E1800004EB440300EB4303D9888A4228BF0A46C4
:10E190001A8100229A722046FFF768FFC8B904EB83
:10E1A000440305EB4303DB7A8BB9EB687BB140F6A4
:10E1B0007722ADF80020ADF8024004EB440405EBF3
:10E1C00044042289ADF8042069462846984702B0E5
:10E1D00070BD074B07495B1ADB081B0443F00106BF
:10E1E000FCF772FD024604493046FBF73FFCD6E7D8
:10E1F00048430200E84202000C4A0200A0B138B5D0
:10E200000546C160F72303804380FB23037100248C
:10E210000CB1002038BD04EB440005EB4000063093
:10E22000FFF726FF0134F3E70E20704738B1A1F164
:10E2300017039BB2E02B04D80180002070470E200A
:10E24000704707207047000038B58488F4B90D4640
:10E2500003883A2B1BD008D8102B0DD0112B0FD1CF
:10E2600001462846FFF70CFF0AE0552B08D101466E
:10E270002846FFF77DFF03E001462846FFF738FFF9
:10E2800004EB440305EB43039B7A2BB938BD0146ED
:10E290002846FFF7FFFEF3E704EB440305EB4303D7
:10E2A000D9882046FFF7E0FE38B904EB440305EBBC
:10E2B000430398720122DA72E8E71128E6D0074C8E
:10E2C000074AA41AE408240444F00104FCF7FCFC07
:10E2D000024604492046FBF7C9FBD7E74843020042
:10E2E000E8420200D8490200B0DF704766DF70479D
:10E2F000037A03B9704710B5044600214088FFF740
:10E30000F5FF08B9207210BD112802D0626890474D
:10E31000F9E701232372F6E708B50B79012B00D04A
:10E3200008BD0A8843889A42FAD101230372FFF795
:10E33000DFFFF5E70B4609884288914228D110B5E6
:10E3400084B004469A78022A1CD19A7A042A03D00F
:10E35000062A01D0052A15D10022009201920292CC
:10E36000039202228DF800204FF4C072ADF8042011
:10E370009A7A052A08D069461888FFF7B5FF08B1D0
:10E380006268904704B010BD0022ADF80420F2E7A7
:10E39000704760B169B10278DE2A0CD00A68426029
:10E3A000DE2202704FF6FF724280002070470E207E
:10E3B00070470E2070470820704728B10278DE2A87
:10E3C00004D14180002070470E207047082070471C
:10E3D00041B338B504460D4690B10B78DE2B0FD112
:10E3E00082884B889A420CD021462388112B11D069
:10E3F000512B0AD0012B03D104312846FFF78CFFA3
:10E4000038BD0846FFF774FFEEE704312846FFF7F2
:10E4100091FFF5E7A2886B889A42F1D14FF6FF731E
:10E420006B80EDE77047A8DF7047ADDF7047AEDF68
:10E43000704762DF704730B589B004460D4601AAC7
:10E4400089884069FFF7E6FD10B9019B1A780AB97F
:10E4500009B030BD02A80022029242608260C26010
:10E460000261426101228DF808200394AA88ADF868
:10E4700010200593A3699847EAE770B58AB004466F
:10E480000D46002600966A4689884069FFF7C2FD5E
:10E4900002AA0296566001AB03930223ADF808303E
:10E4A000218AA888FFF7C1FFE0B9A369D3B1039817
:10E4B000FFF764FAB0B1009B0BB101221A7004A8F7
:10E4C0000023049343608360C360036143610223BC
:10E4D0008DF810300594AB88ADF81830009B079389
:10E4E000A36998470AB070BD30B589B004460D469F
:10E4F00001AA89884069FFF78DFD002302930393E9
:10E5000004930593069307930394AB88ADF81030FA
:10E51000019A0592EB8821898B4204D0A28993420B
:10E520001DD009B030BD298A0229F7D1002AF8D0C0
:10E5300005F11200FFF722FA58B1019B01221A706F
:10E5400002238DF80830A369002BEAD002A898476F
:10E55000E7E7019B187003238DF80830F3E7A36900
:10E56000002BDED005F1120206922A8AADF81C209B
:10E5700002A89847D5E7B1B108B5034608464BB1A4
:10E580001A88502A07D0572A09D0102A02D11946D2
:10E59000FFF773FF08BD1946FFF7A6FFFAE7194614
:10E5A000FFF749FFF6E7704730B58FB004468E4657
:10E5B000404B0DF1240C0FCB8CE80F00002C74D0D5
:10E5C0002546BEF1000F72D0DEF80030A36121466F
:10E5D0006046FFF72EFF034610B118460FB030BD5E
:10E5E000224612F8023B8DF836300120ADF8340097
:10E5F0000DA9FFF718FF03460028EED101AC202239
:10E600000146204605F04CFD0223ADF804302A46B1
:10E6100012F80C3B8DF80630F423ADF808300123D6
:10E62000ADF80A304FF001018DF810109DF811106F
:10E6300041F008018DF81110C9B241F004018DF8C4
:10E6400011108DF815308DF8163021466888FFF7C7
:10E6500099F903460028C0D120220146204605F042
:10E660001FFD0323ADF804302A4612F8043B8DF851
:10E670000630F423ADF808300123ADF80A304FF02E
:10E6800001018DF810109DF8111041F010018DF866
:10E6900011108DF815308DF816308DF81730214691
:10E6A0006888FFF76FF9034697E70E2395E70E2377
:10E6B00093E700BFB04C020048B3F0B587B00F46F7
:10E6C00016461C46054601AA19464069FFF7A2FCFA
:10E6D000D8B94FF6FF7320469C421AD0019BD3B1A4
:10E6E0001B78D3B13388F42B19D802A900230293E5
:10E6F0004B608B60CB60AB88ADF808300597049613
:10E7000001238DF80A30FFF792FE07B0F0BD0E200E
:10E7100070470520F9E70520F7E70820F5E707200F
:10E72000F3E70000002807DB00F1604000F56140DE
:10E7300090F800034009704700F00F00014B185C8F
:10E740004009704714ED00E010DF704710B5044633
:10E750001F2819DD2046FFF7E5FF072825D8EC2301
:10E76000034113F0010F23D0134B9868A0B1600947
:10E77000194653F8203004F01F040122A24013432D
:10E7800041F82030002012E00C4BC34013F0010F81
:10E79000E0D142F201000AE004F01F026409012303
:10E7A0009340074A42F8243001E042F2020010BDD3
:10E7B00042F20200FBE700BF882D0020FC06FFBDEF
:10E7C00000E100E010B582B004460A496846FCF753
:10E7D00044FA02E06846FCF74AFA019B3BB11A682A
:10E7E0005968204690470028F4D1112000E01846CF
:10E7F00002B010BDD84C020010B582B004460849E2
:10E800006846FCF72AFA06E01A68596820469047DD
:10E810006846FCF72CFA019B002BF5D102B010BD25
:10E82000CC4C020008B51620FFF790FF00B908BDD8
:10E83000FBF79CFAFBE7000010B582B01C4B1B787D
:10E840006BBB1C4B01221A700020FFF7BBFF112885
:10E850002AD00020FFF7D0FF174B1B68019300233D
:10E860008DF803300DF10300FBF73CFE134901A8BE
:10E87000FFF76AFF0446B0FA80F040090C4B1870AD
:10E880009DF80300FBF732FE5CB90A4A14700C4A8B
:10E890001470FFF7C7FF0120FFF7AEFF01E0082368
:10E8A0001C46204602B010BD00231C46F9E700BFFD
:10E8B0005633002054330020E44C02009F04020031
:10E8C00055330020014B1878704700BF56330020A5
:10E8D00000B583B007496846FCF7BFF905E01A6840
:10E8E000586890476846FCF7C2F9019B002BF6D1A7
:10E8F00003B000BDC04C020008B5FFF7E9FF08BD3A
:10E9000060DF704769DF704761DF7047134B1B782A
:10E9100013B300B5ADF5017D0DF102014FF4FA73AB
:10E920000B8003A8FFF7F0FF70B90D4901A8FCF7B1
:10E9300094F9029B002BEFD01A68596803A89047FE
:10E9400001A8FCF794F9F4E7052802D10DF5017D43
:10E9500000BDFBF70BFAF9E7704700BF5733002003
:10E96000E84C020018B1034A0260002070470E20F4
:10E97000704700BF002500202DE9F04385B0804698
:10E980000E460846FFF7EEFF814618B1484605B02F
:10E99000BDE8F08301AC01906060A0608DF8048058
:10E9A00001278DF806700623ADF80830326821463D
:10E9B0002020FFF7A7FFCDF80490C4F80490C4F816
:10E9C00008908DF80570326821464020FFF79AFFC5
:10E9D000CDF80490C4F80490C4F808908DF8048031
:10E9E000F723ADF80630326821462320FFF78AFF6F
:10E9F000CDF80490C4F80490C4F808908DF8047021
:10EA0000326821463846FFF77DFFCDF80490C4F800
:10EA10000490C4F808904FF4B06301933268214623
:10EA2000A120FFF76FFFCDF80490C4F80490C4F85C
:10EA3000089032682146A020FFF764FFA6E7000097
:10EA400008B5FFF75DFF10B9014B01221A7008BD30
:10EA5000573300204BDF704700B585B009E01A68D6
:10EA600059680198904702A8FCF701F9039B002B15
:10EA7000F5D101A8FFF7EEFF20B9064902A8FCF77F
:10EA8000ECF8F3E7052801D105B000BDFBF76EF9FE
:10EA9000FAE700BFF44C0200064B1B68B3F5806F29
:10EAA00006D2044A1368591C1160034A3B21D15411
:10EAB000704700BF6034002064340020064B1B68A0
:10EAC000B3F5806F06D2044A1368591C1160034ADB
:10EAD0002021D154704700BF6034002064340020EE
