S00F000052656C656173652E7372656354
S11300000C943E000C945B000C945B000C945B001D
S11300100C945B000C945B000C945B000C94320118
S11300200C945B000C945B000C945B000C945B00E0
S11300300C945B000C945B000C945B000C945B00D0
S11300400C945B000C945B000C945B000C945B00C0
S11300500C945B000C945B000C945B000C945B00B0
S11300600C945B000C945B000C945B000C945B00A0
S11300700C945B000C945B000C945B0011241FBE79
S1130080CFEFCDBFDFE3DEBF18E3A0E0B8E3E2EEDD
S1130090F3E002C005900D92A630B107D9F728E32A
S11300A0A6E0B8E301C01D92AA30B207E1F70E94AE
S11300B059010C94EF010C9400008091000A8E7F8A
S11300C08093000A8FE08093050A21E02093030ABD
S11300D01092000A99E39093260A9093270A88E3E2
S11300E08093200A8093210A90932B0A80932D0AEF
S11300F080E28093010A1092020A10920A0A209365
S11301000E0A8091000A81608093000A80E00895BD
S11301108091000A8E7F8093000A8FE08093050A05
S113012021E02093030A1092000A9AEF9093260A82
S11301309093270A89EF8093200A8093210A909351
S11301402B0A80932D0A80E28093010A1092020AFE
S113015010920A0A20930E0A8091000A816080930B
S1130160000A80E00895853658F48695869549F40A
S113017089E380932B0A88E380932D0A80E0089515
S113018089E199E3981B90932B0A98E3981B909329
S11301902D0AF4CF809100068E7F80930006109282
S11301A0000682E08093010693E59093020690E2B4
S11301B090930306109204068093050686E08093CC
S11301C006068091000681608093000681E080939A
S11301D00806809108068111FCCF809100068E7F6D
S11301E0809300068091100690911106089580E492
S11301F08093020480E88093020484E080931604D0
S11302008093170422E0209341048093410491E0F9
S113021090934104209346048093460490934604AB
S113022090E19093010480E280930104909305048B
S1130230809306040895809141018111FCCF80913F
S113024051018111FCCF1092470181E08093530149
S11302508093520189E3809350018091510181116F
S1130260FCCF08958F938FB78F939F9381E08093F2
S11302705301809107389091083897FD09C0809107
S11302800738909108380897809307389093083876
S11302909F918F918FBF8F9118958093073890937A
S11302A00838809107389091083818161906CCF34D
S11302B0089580914000809309388FE38093400033
S11302C00E94F7008091023890910338A09104387D
S11302D0B09105380197A040B040809302389093C4
S11302E00338A0930438B09305380297A040B04077
S11302F048F71092520181E080935301809150009D
S1130300897F8093500088ED84BF109260008091B3
S1130310630080FDFCCF88ED84BF81E080936100A1
S1130320F8940E94F7000E941B0180915000897F7D
S113033080935000809150008160809350007894A5
S11303400E94880012E0C1E0D4E002E60E94880026
S113035084E190E00E944D0180910638843690F04B
S113036010934504D0934504C09345040E945D0056
S113037089E10E94B30080E197E20E944D0100935D
S11303800638E4CF83E090E00E944D010E94CA0049
S11303909C0140910038509101388417950748F426
S11303A0293087E0380728F020930038309301384B
S11303B0A901909106384E5C5F4F4217530720F411
S11303C09F5F90930638C8CF10934504D09346049A
S11303D0C0934604903009F4BFCF9150F2CFF89403
S10503E0FFCF49
S10903E2A00FA08601003B
S9030000FC
